{
  "contractName": "Game",
  "abi": [
    {
      "constant": true,
      "inputs": [
        {
          "name": "",
          "type": "uint256"
        }
      ],
      "name": "Lands",
      "outputs": [
        {
          "name": "name",
          "type": "string"
        },
        {
          "name": "size",
          "type": "uint256"
        },
        {
          "name": "buildingNumber",
          "type": "uint256"
        },
        {
          "name": "owner",
          "type": "address"
        }
      ],
      "payable": false,
      "stateMutability": "view",
      "type": "function"
    },
    {
      "constant": true,
      "inputs": [
        {
          "name": "",
          "type": "uint256"
        }
      ],
      "name": "Players",
      "outputs": [
        {
          "name": "id",
          "type": "uint256"
        },
        {
          "name": "_address",
          "type": "address"
        },
        {
          "name": "hp",
          "type": "uint256"
        },
        {
          "name": "name",
          "type": "string"
        }
      ],
      "payable": false,
      "stateMutability": "view",
      "type": "function"
    },
    {
      "constant": true,
      "inputs": [],
      "name": "LandCount",
      "outputs": [
        {
          "name": "Count",
          "type": "uint256"
        }
      ],
      "payable": false,
      "stateMutability": "view",
      "type": "function"
    },
    {
      "constant": true,
      "inputs": [],
      "name": "PlayerCount",
      "outputs": [
        {
          "name": "Count",
          "type": "uint256"
        }
      ],
      "payable": false,
      "stateMutability": "view",
      "type": "function"
    }
  ],
  "bytecode": "0x608060405234801561001057600080fd5b506104be806100206000396000f300608060405260043610610062576000357c0100000000000000000000000000000000000000000000000000000000900463ffffffff16806315ccdffa14610067578063226897b51461009257806348ef3f031461017957806393a44f8814610260575b600080fd5b34801561007357600080fd5b5061007c61028b565b6040518082815260200191505060405180910390f35b34801561009e57600080fd5b506100bd60048036038101908080359060200190929190505050610298565b60405180806020018581526020018481526020018373ffffffffffffffffffffffffffffffffffffffff1673ffffffffffffffffffffffffffffffffffffffff168152602001828103825286818151815260200191508051906020019080838360005b8381101561013b578082015181840152602081019050610120565b50505050905090810190601f1680156101685780820380516001836020036101000a031916815260200191505b509550505050505060405180910390f35b34801561018557600080fd5b506101a46004803603810190808035906020019092919050505061038f565b604051808581526020018473ffffffffffffffffffffffffffffffffffffffff1673ffffffffffffffffffffffffffffffffffffffff16815260200183815260200180602001828103825283818151815260200191508051906020019080838360005b83811015610222578082015181840152602081019050610207565b50505050905090810190601f16801561024f5780820380516001836020036101000a031916815260200191505b509550505050505060405180910390f35b34801561026c57600080fd5b50610275610486565b6040518082815260200191505060405180910390f35b6000600180549050905090565b6000818154811015156102a757fe5b9060005260206000209060050201600091509050806000018054600181600116156101000203166002900480601f0160208091040260200160405190810160405280929190818152602001828054600181600116156101000203166002900480156103535780601f1061032857610100808354040283529160200191610353565b820191906000526020600020905b81548152906001019060200180831161033657829003601f168201915b5050505050908060010154908060020154908060040160009054906101000a900473ffffffffffffffffffffffffffffffffffffffff16905084565b60018181548110151561039e57fe5b90600052602060002090600402016000915090508060000154908060010160009054906101000a900473ffffffffffffffffffffffffffffffffffffffff1690806002015490806003018054600181600116156101000203166002900480601f01602080910402602001604051908101604052809291908181526020018280546001816001161561010002031660029004801561047c5780601f106104515761010080835404028352916020019161047c565b820191906000526020600020905b81548152906001019060200180831161045f57829003601f168201915b5050505050905084565b600080805490509050905600a165627a7a72305820abcd5426f82d106500d0762ddb5aefa6a15c8fd12d8a2a9c3d8a9950c30867670029",
  "source": "pragma solidity ^0.4.0;\n\n//So in the contract we define the game state and the moves you can make in it. This is obviously not a final design.\ncontract Game {\n\n    //Define structs first.\n\n    //Implement player associations later.\n\n    struct Building {\n        string name;\n    }\n\n    //Define the land asset that players can hold.\n    struct Land {\n        string name;\n        uint size;\n        uint buildingNumber; //refactor into a function.\n        Building[] Buildings;\n        address owner; //make this a group of players later on.\n    }\n\n    //Define a player and associate each address with a player with a mapping.\n    struct Player {\n        uint id;\n        address _address;\n        uint hp;\n        string name;\n    }\n\n    Land[] public Lands;\n    Player[] public Players;\n\n    //Define game functions.\n    \n    function createPlayer(string newName) private returns(uint rowNumber) {\n        Player memory newPlayer;\n        newPlayer._address = msg.sender;\n        newPlayer.hp = 30;\n        newPlayer.name = newName;\n        return Players.push(newPlayer)-1;\n    }\n\n    function createLand(string newName) private returns(uint rowNumber) {\n        Land memory newLand;\n        newLand.size = 4; //set options later\n        newLand.name = newName;\n        return Lands.push(newLand);\n    } \n\n    function LandCount() public view returns (uint Count) {\n        return Lands.length;\n    }\n\n    function PlayerCount() public view returns (uint Count) {\n        return Players.length;\n    }\n}",
  "sourcePath": "/home/tycho-san/code/Solidity/game-test/contracts/Game.sol",
  "compiler": {
    "name": "solc",
    "version": "0.4.23+commit.124ca40d.Emscripten.clang"
  },
  "schemaVersion": "2.0.0",
  "updatedAt": "2018-05-20T19:54:11.788Z"
}